:04000000803118280B
:100008007E14803120007F08FB00911D1428F30125
:10001800F30A24001108FA007A08F100200091116F
:100028007B08FF007E10090080311A28F001F101D9
:10003800F201F301F401F501F601F701F801F90104
:100048007E1020008031AA28FD0070080319572867
:100058006C287630FC007C08F200F001F00A0800F9
:100068007530FC007C08F200F001F00A08007430DA
:10007800FC007C08F200F001F00A08007930FC006E
:100088007C08F200F001F00A08007830FC007C08D7
:10009800F200F001F00A08007730FC007C08F2005A
:1000A800F001F00A08007D08423A03195028053A81
:1000B80003194928153A03194228303A03193B28ED
:1000C800053A03193428153A03192D28762808000B
:1000D8007D08FC007208860087017C088100F20117
:1000E800F001080008000B0821001908873970384A
:1000F80099000B178C1022008C1021000C10220084
:100108000C1021000C1122000C1121000C122200ED
:100118000C1221008C1122008C1121000D102200DC
:100128000D10803199200B08080024009516150839
:10013800F039043895002100911508007308031957
:100148000800710880312820F301080080317720E9
:0A01580080318031A2208031AD28F3
:020000040001F9
:04000E00FCFFFFFFF5
:00000001FF
