:0400000080315728CC
:100008007E14803120007F08FA00911D1428F30126
:10001800F30A24001108F9007908F2002000911170
:100028000B1D52287B08710203181D2822008C140E
:100038001F2822008C107808710203182628220035
:100048000C14282822000C107708710203182F2896
:1000580022000C15312822000C1120002208710200
:100068000318392822000C163B2822000C127608A7
:1000780071020318422822008C15442822008C1192
:100088007508710203184B2822000D144D28220010
:100098000D100130F9007908F1070B117A082000DA
:1000A800FF007E10090080315928F001F101F201AA
:1000B800F301F401F501F601F701F8017E102000C3
:1000C80081310E29FF302000A200A0002008FB008B
:1000D800780A0319922801302000A0002008F607AA
:1000E8007608A1002108F80034302000A000F13083
:1000F800890B7C28A00B7C2800326C28013020005A
:10010800A2022208A0002008FB0034302000A00032
:10011800F130890B8D28A00B8D2800327B0803193C
:10012800A828822801302000A0002008F5077508BB
:10013800A1002108F70034302000A000F130890B1D
:10014800A328A00BA3280032770A0319BC289628F5
:100158000130F60276082000A0002008F8003430AC
:100168002000A000F130890BB728A00BB728003277
:1001780078080319D228AC2801302000A0002008F4
:10018800A2072208A1002108FB0034302000A000AB
:10019800F130890BCD28A00BCD2800327B0A03193A
:1001A800E628C0280130F50275082000A0002008C4
:1001B800F70034302000A000F130890BE128A00BB3
:1001C800E1280032770803190800D6288B130B178B
:1001D80021008C1022008C1021000C1022000C1021
:1001E80021000C1122000C1121000C1222000C120B
:1001F80021008C1122008C1121000D1022000D10FD
:100208002100951295151508F839063895008B16B2
:100218008B1708008031EA208131803166208131D6
:0202280011299A
:020000040001F9
:04000E00E2FFFFFF0F
:00000001FF
