:0400000080315628CD
:100008007E14803120007F08FB00911D1428F30125
:10001800F30A24001108FA007A08F100200091116F
:100028000B1D51287608720203181D2822008C1413
:100038001F2822008C107508720203182628220037
:100048000C14282822000C107408720203182F2898
:1000580022000C15312822000C11790872020318AD
:10006800382822000C163A2822000C12780872024E
:100078000318412822008C15432822008C11770888
:10008800720203184A2822000D144C2822000D1071
:100098000130FA007A08F2070B117B082000FF00F4
:1000A8007E10090080315828F001F101F201F301B6
:1000B800F401F501F601F701F801F901A2017E103A
:1000C80020008031F2282000A10070080319972829
:1000D800AC287630A0002008A200F001F00A080041
:1000E8007530A0002008A200F001F00A0800743062
:1000F800A0002008A200F001F00A08007930A00052
:100108002008A200F001F00A08007830A0002008BA
:10011800A200F001F00A08007730A0002008A20031
:10012800F001F00A08002108423A03199028053A1C
:1001380003198928153A03198228303A03197B28AC
:10014800053A03197428153A03196D28B6280800CA
:100158002108A00022088600870120088100A2014A
:10016800F001080008000B082100190887397038C9
:1001780099000B178C1022008C1021000C10220003
:100188000C1021000C1122000C1121000C1222006D
:100198000C1221008C1122008C1121000D1022005C
:1001A8000D108031E1202100951295111508F839BC
:1001B800063895008B160B080800240095161508BC
:1001C800F0390438950021009115080073080319C7
:1001D8000800710880316720F30108008031B720DA
:0A01E80080318031EA208031F528D3
:020000040001F9
:04000E00FCFFFFFFF5
:00000001FF
