:0400000080315628CD
:100008007E14803120007F08FB00911D1428F20126
:10001800F20A24001108FA007A08F1002000911170
:100028000B1D51287908700203181D2822008C1412
:100038001F2822008C107808700203182628220036
:100048000C14282822000C107708700203182F2897
:1000580022000C15312822000C11760870020318B2
:10006800382822000C163A2822000C127508700253
:100078000318412822008C15432822008C1174088B
:10008800700203184A2822000D144C2822000D1073
:100098000130FA007A08F0070B117B082000FF00F6
:1000A8007E10090080315828F001F101F201F301B6
:1000B800F401F501F601F701F801F901A2017E103A
:1000C80020008031F2282000A10073080319972826
:1000D800AC287930A0002008A200F301F30A080038
:1000E8007830A0002008A200F301F30A0800773056
:1000F800A0002008A200F301F30A08007630A0004F
:100108002008A200F301F30A08007530A0002008B7
:10011800A200F301F30A08007430A0002008A2002E
:10012800F301F30A08002108423A03199028053A16
:1001380003198928153A03198228303A03197B28AC
:10014800053A03197428153A03196D28B6280800CA
:100158002108A00022088600870120088100A2014A
:10016800F301080008000B082100190887397038C6
:1001780099000B178C1022008C1021000C10220003
:100188000C1021000C1122000C1121000C1222006D
:100198000C1221008C1122008C1121000D1022005C
:1001A8000D108031E1202100951295111508F839BC
:1001B800063895008B160B080800240095161508BC
:1001C800F0390438950021009115080072080319C8
:1001D8000800710880316720F20108008031B720DB
:0A01E80080318031EA208031F528D3
:020000040001F9
:04000E00FCFFFFFFF5
:00000001FF
