:08000000803102288731F22F44
:100D70008731592780310228000000000000000060
:100D800000000800FE0012001E00FE0BC32E0034FF
:100D9000F300F201731CD02E7008F1007108F20705
:100DA0000310F00D0310F30C7308031DCA2E720814
:100DB000080000340034003400340034FF340034C0
:100DC000FF34FF34FF34FF34FF34FF34FF3400348A
:100DD000FF3400340034F901183079020318080098
:100DE0000C158C158631BC268631701CF92E00003E
:100DF000FA2E0C11741CFE2E0000FF2E8C11863171
:100E0000BC2686310C118C118631BC26863101300E
:100E1000F336F20CF10CF00C890B082F0130F73689
:100E2000F60CF50CF40C890B0F2F0130F800780844
:100E3000F907EC2EFB00FC0174087C020318080083
:100E40007508F8007C08F9000130F935FF3E031DF4
:100E5000252F79357B07FA007A0886008701780804
:100E600081007608F8007C08F9000130F935FF3E72
:100E7000031D362F79357B07FA007A0A8600870131
:100E8000780881007708F8007C08F9000130F9350E
:100E9000FF3E031D472F79357B07FA007A08023E93
:100EA00086008701780881000130F8007808FC0787
:100EB0001C2FA030860000308700273084000030CF
:100EC000850012302000A00016001A00A00B642F2D
:100ED000E20106306202031808000A30A000200870
:100EE000F4000330A1002108F00062088631C82612
:100EF0008731273E8600870101082000A2002208D2
:100F0000F5000330A3002308F00062088631C826EC
:100F10008731013E273E8600870101082000A4009A
:100F20002408F6000330A5002508F0006208863189
:100F3000C8268731023E273E86008701010820002F
:100F4000A6002608F700393087311A27873120009C
:100F5000E1010A3061020318DF2F6108A0000130AF
:100F6000A035FF3E031DB02F2035393E8600870196
:100F7000403FF000413FF100423FF200433FF300A9
:100F80006108A1000130A135FF3E031DC32F2135AB
:100F9000393E86008701403FF400413FF500423F63
:100FA000F600433FF7008631EB2687310130200001
:100FB000A0002008E1070A306102031CAD2F1530A4
:100FC0002000A1004B30A000BE30890BE52FA00B04
:100FD000E52FA10BE52F000001302000A000200824
:100FE000E207692FD930840086308500A030860062
:100FF0000030870012308631C22620008631B82E9C
:00000001FF
